:020000022000DC
:1000000000C00091780005FD47C0F092800608E12D
:10001000009395060FEF0A950023E9F700918806F3
:1000200005FFECC0E0E0F0E0079116910F3F19F4F6
:100030001F3F09F4E3C030C03091CF0137FDFCCF42
:100040003BB72BBFF8012091CA0113E21093CA01FC
:100050000A01E8952093CA013BBF08953BB72BBF27
:10006000F8012091CA014093CA013DE93093340060
:0A007000E8952093CA013BBF0895F4
:10007C000D947D010D94B20101E00DBF01E20EBFA4
:10008C00C2EBDAE30F94BD000F947C0AF092950654
:10009C0000910020109101200A3A154511F00C94A2
:1000AC000000F0920020F092012000E20093780012
:1000BC00F6CFFF84EE84DD84CC84BB84AA8499843F
:1000CC0088847F806E805D804C80BB81AA81998101
:1000DC008881F0E0EC0FFD1FEF010895FA92EA928F
:1000EC00DA92CA92BA92AA929A928A927A926A9264
:1000FC005A924A92BA93AA939A938A930895AF9379
:10010C00BF93D80101900D9241505040D9F7BF9147
:10011C00AF9108954091CA01E22FF32F0093CA01C9
:10012C0004914093CA01089540E04BBFF80158ED8B
:10013C0054BF208308954A951AF016950795FBCF66
:10014C0008954A951AF0000F111FFBCF089520E077
:10015C0008D0E9F708953BBF27913BB702D0D9F7F8
:10016C0008952D9301501040202F212B089502E16A
:10017C00402E05E1502E02E0602EF201362D6BBEB2
:10018C0007911691F201EE5FFF4F3F4F3BBFA791D6
:10019C00B691F201362DEC5FFF4F3F4F3BBF4791BD
:1001AC0057916691242F252B262B21F0FA01362FFF
:1001BC00D2DF01C0CCDF07E0400E00E0501E601E15
:1001CC00A201662D403255416240B8F20895BD013E
:1001DC00D801F90104C021912D9341505040242F96
:0801EC00252BC9F7DB01089582
:1001FC0043CF0FBF08952AE107D00093FA042BE1F7
:10020C0003D00093FB04089530E002E00F949000BB
:10021C000F3F09F40FE108950F94810000E0009363
:10022C00600000E30F94040A30D10064008301E005
:10023C0000936000AFB7F89451D028E0029FF00112
:10024C00EC5BF54D158303950230C0F3D4DF0091C0
:10025C00C0040093C00419D10068008300810061C0
:10026C00008384E49AE20496E6EC80839183E0ECCC
:10027C0046D10FEF0583E8EC0081016000830A2F63
:10028C00B8DFE3E00D946C008991089500E00895C7
:10029C000FB7F89410E41093CA0410E21093CA0438
:1002AC00E1ECF4E0108111601083E9EC1081126034
:1002BC001083E8EC108110641083E9EC108111605C
:1002CC001083E8EC10811068108393CF008308959D
:1002DC000093C30408950091C304089500E010E056
:1002EC0008950AD1068F178F20A331A3089566D0E5
:1002FC000091CB0407FF05C000E814D20F9425042D
:10030C0029C0F9D1002331F5EBECC0D004FF18C0A3
:10031C0000E108D20F94110400E00093C30420E420
:10032C0030E010E062D020E430E010E000E85DD076
:10033C0002E71AE200934C2A10934D2A29D10AC0E5
:10034C00008106FF02C000E404C0008105FF02C06A
:10035C0000E2E8D11ED0189531D09ED101FD02C02B
:10036C0085D1B1F402E00093CC040091C5043BD0DC
:10037C00F801008105FF06C036D020E2F801269373
:10038C0008D106C000E830D020E2F8012693C0D096
:10039C00E1CFACBF9BBF8FBF0991199129913991C6
:1003AC0049915991699179910990199029903990B5
:1003BC00E991F99189919991A9910895AA939A93A8
:1003CC008A93FA93EA933A922A921A920A927A931D
:1003DC006A935A934A933A932A931A930A938FB730
:1003EC009BB7ACB7089500E01AC08A9320513040F7
:1003FC0041F02051304039F02052304031F080E053
:10040C0005C081E003C082E001C083E0EDDF20E0A5
:10041C00F801218326E020838064818335CF68E452
:10042C007AE2202F2F70220F402F440F57DF001F2E
:10043C00020F43E00F94A700060F171F08959D01AC
:10044C00E8EC24D00F7D008300810F7D00833BD12D
:10045C0002E00593A2E5BAE241DF0D930C935396AB
:10046C0000E2069300E4069338D1069300E4069369
:10047C001D931D931C9311961D931D931C931797FD
:10048C001D931C9310A7D9010895E0ECF4E00081B2
:10049C000895FFD0002331F0033011F0043009F43B
:1004AC001FD176D029D006811781083050E010403A
:1004BC0009F548E022E73AE20AE51AE20F94ED006A
:1004CC00E8ECF4E01CD01BD00F94DB05002309F4FE
:1004DC00E6C012D0068907FF04C014D002E004A7BE
:1004EC0017C0048D158D012B09F405C00BD001E04C
:1004FC0004A7EFD00895DFC0E4E4FAE20895008188
:10050C000062E4CE00E000A701A702A703A70895AC
:10051C00BCD0033011F43BD037C083D080A191A163
:10052C00801B910B282F292BA9F47FD0048D158DBE
:10053C000217130719F005A5002311F0C7D024C02A
:10054C0080D081F07BD071F000E0FD0102A703A701
:10055C0080A191A1803400E0900720F080E490E02D
:10056C0005A703C001E00093712AFD0186879787D8
:10057C00068D178D22A533A5020F131F008B118B2F
:10058C0089014AD0A0D0A6D0E4E00D946B00A8D08D
:10059C0056CF7BD0043011F4FADF3DC0FD018681CB
:1005AC00978162A573A520A131A18B01080F191F9A
:1005BC002017310718F4C901861B970BAC0122E7F1
:1005CC003AE2068D178D060F171F0F94ED0029D0F8
:1005DC0023D08034904031F42CD0448D558D241789
:1005EC00350740F000A311A32CD011F027D059F0FF
:1005FC0062D011C020A131A12017310759F421D0AC
:10060C0011F01CD011F44BD006C00BD00ED000E072
:10061C0002A703A75ED0B8CF080F191F02A713A714
:10062C000895FD0102A513A5089503D020A731A7B5
:10063C00089520A531A5200F311F089559D000230E
:10064C00089545A156A167A100E04030500760070E
:10065C00089522D001FD09C009D039F41AD0013017
:10066C0009F449CF043009F41DD008955ED0E7CFCA
:10067C0013D001FD09C0FADF39F40BD0023009F4B4
:10068C0025C0033009F40ED008950F948000A4E423
:10069C00BAE20091702A08950091CC04089505E007
:1006AC000093702AE1E5FAE204E00593E9E4FAE24A
:1006BC0004E00593089520DF03E004A700E006871B
:1006CC00078701D007C0E0E5FAE2089504E0009343
:1006DC00702A03D002E006930895E8E4FAE2089544
:1006EC000BDF42A153A164A1AFDF09F001D0089543
:1006FC00FA016CBF1994EBECC9DE02FF08C0F09351
:10070C00CA040091502A06FF0BC0A3DF09C0008168
:10071C0001FF07C002E006D00091482A06FDA8DFC1
:10072C0016C0B4CD0093CA040895B6DF00FFAECD59
:10073C0001E00093CC04D1DF00E80693C4DF00E8AD
:10074C00069301E0EFDFC9DF00E10693A2DE01E0D2
:10075C000895BD014DD12681222371F1A281B3816F
:10076C002D913C91D90114964C91041728F52483B2
:10077C003583D90112964D915C91240F351F06C01B
:10078C004C9150E0A40FB51FA483B583A481B5810F
:10079C00A217B30788F411964C911197443081F746
:1007AC0012964C911297041759F713964C91139774
:1007BC00141731F701E001C000E0DB0108953DD0D2
:1007CC00802F10E0E8D111F400E006C015D00381B1
:1007DC0014812581D5D101E04DC02FD0802FDBD1E4
:1007EC0049F00AD0008111812281CAD1002311F075
:1007FC0001E001C000E03EC0AEEDB1E2ED91FC9134
:10080C00A281B38102E0809FA00DB11DED91FC91FE
:10081C0008950D94120111D00DD139F080E003C070
:10082C00082FCDDF839509D1D8F300E00093E221A6
:10083C0001E010E00D931C931DC00D948000A3D11A
:10084C00C9F080E00EC0FD0118D044855585668541
:10085C0000E040305007600719F0FA016CBF1995A1
:10086C008395C6D0A281B381ED91FC91119704813F
:10087C00801748F3E4E00D946B000281138177D16B
:10088C000081F181E02F089500915C2A0F770D947F
:10089C006E0100915C2A002329F00A9541F00A951B
:1008AC0011F125C024E030E004E911E21AC025E082
:1008BC000CE711E240E050E032E0F801E40FF51FE4
:1008CC006081439FF001E65AFE4D6283538343954A
:1008DC00421798F3220F2E5F20935A2130E00AE53D
:1008EC0011E2A6D005C020E102E811E2E3CF7CC101
:1008FC0001E0089574D0FD014281238102ED11E2E3
:10090C002A9529F02A95A1F02A9551F12CC02DD0C9
:10091C00208130E0F801008111818AD065D02285D8
:10092C0033850217130710F40287138701E054C0B4
:10093C001CD021894217B8F4F801F9D024E0429F69
:10094C00000D111DF80100811181F8012281338104
:10095C006FD022E0FD010085F185E02F2183DECFF1
:10096C0098DF0023D9F600E0E2CFF8012081F18175
:10097C00E22F089534D038D0012B59F50F94710122
:10098C00002339F1E2EDF1E27BDF2189FD010281E7
:10099C002017F8F040DFFD0102810093E221209145
:1009AC00E2212223C1F0E2EDF1E2C1D034E0239F39
:1009BC00000D111D045010401BD002831383A0E0C6
:1009CC0001C0A395EAD0A01730F410E04ED000235C
:1009DC00C1F700E001C001E0A991B9910895BA9363
:1009EC00AA93AAE5BAE20895FD010681178108953C
:1009FC00ECEDF1E2089521DF93D0068117810130EF
:100A0C00104039F417D029F0848117D010F4C1D0DC
:100A1C0011F400E00CC0FD01A7D02FDFAED0009385
:100A2C00E32121E030E017968D0102D001E022CFC6
:100A3C000D947701ACEDB1E2A8C0FD01B0D08017E8
:100A4C000895AA938A936CD06ED041F49ED031F065
:100A5C00A48182810A2FB3DE002311F400E002C0CE
:100A6C00182F03D08991A99108950A2FB6CE58D08A
:100A7C00008107FF2DC026813781022F032B09F43B
:100A8C0047C000810F71F1F41181112329F0165028
:100A9C0069F0125061F016C0223000E0304009F0CD
:100AAC00089522E030E00CED11E20AC023CF213092
:100ABC0000E0304009F0089521E030E002EE11E250
:100ACC00B7DF16CF013021F501810A3009F593CF3C
:100ADC000F7101F511811A9581F01250C9F0125065
:100AEC0019F01450B1F016C01ED091F40AE414E0C1
:100AFC0021E0048715872687E4CF15D049F417D059
:100B0C000130104029F474DF00810D7F0083D9CFB0
:100B1C006BC030CF0130E1F701810B30C9F791CFB9
:100B2C00EAE5FAE2089506811781012B0895028106
:100B3C001381089528D091F080915E2A2ED08017D1
:100B4C0068F427D059F054DF0FD0F1DF10D0A0811A
:100B5C00B181FD0112D0102F1DD011F400E003C0A3
:100B6C0043DF20850DD086CE0281F3818BCE22E02F
:100B7C00829F000D111DF8010895018512852385B2
:100B8C00F8012CBF19940F9480000091E2210023EE
:100B9C00089510E0082FDDDDFACFECEDF1E2E4DF93
:100BAC000081F181E02F04810895BADF00E0028713
:100BBC0003870487058706870787008B018B0081D5
:100BCC0007FF02C0B0DF81F000915A2A007619F4B9
:100BDC004EDF002341F400915A2A0F71013021F4A9
:100BEC00A9DF002309F084CE00E0089500E0009313
:100BFC00FF2152D00F94460A0F94550AD2C0089583
:100C0C00BA93AA93AAE5BAE200915A2A0076003266
:100C1C00F9F510915B2A0C9107FF17C0125041F0A7
:100C2C001A9599F526E030E00EEE11E25ED12BC05C
:100C3C00F8D0408D518D628D00E040305007600738
:100C4C0021F1FA016CBF199524C01A9521F01350AB
:100C5C00E1F422D018C00091FF21002341F000E004
:100C6C000F947B0A0CE61AE021E01C9609C020E4E4
:100C7C0030E002E012E239D101E616E021E01F96E5
:100C8C000D931D932C9301E004C0CBD00FE064D0E6
:100C9C0000E0A991B991089502C000E0089500E028
:100CAC00E1D0EAE5FAE200E00787008B018B0487CC
:100CBC00058706870895F0DF00E0B3D0008F018F21
:100CCC00028F01E00F947B0AE2E0F2E23081218195
:100CDC00203001E0300709F420C0203003E0300759
:100CEC0009F43DC02130300709F453C0203004E032
:100CFC00300739F40F945D0A002300E009F40895DD
:100D0C0050C02330300721F401E00093FF210895F7
:100D1C002330364009F452C0C0CF83D0048D158DDA
:100D2C00012309F09CC047815085618540305040BB
:100D3C00604011F410D002C027D009F4AECF20E0EF
:100D4C0038E0D1D002EF17E021E0EAE5FAE20787BC
:100D5C00108B218B28C003E002870AE0AACF14D0A5
:100D6C0019F023D011F4F7DF98CF048D158D0123E2
:100D7C0021F005E317E021E003C00EE617E021E0C7
:100D8C00008F118F228F0FC004E012E271D000236C
:100D9C000895FADF19F009D011F4DDDF7ECFA7D06A
:100DAC0002C00093002201E00895E4EEF1E24481D8
:100DBC005581668140305040604008952497E2E0B0
:100DCC00F2E203811281112319F01A9559F026C011
:100DDC000131F0F429D000E024D0008B018B028B80
:100DEC00038B1CC040E0488349834A834B830B83AD
:100DFC0004810A8316D0088119812A813B814081A4
:100E0C00518162817381041715072607370728F073
:100E1C0008D008E0A1DF00E002C0CFD001E02496AA
:100E2C000895E4EEF1E20895033041F0023031F020
:100E3C00043021F0053011F011E001C010E01093E6
:100E4C00012212E0019FF001E95CFE4D6081F1810D
:100E5C0004EE11E2E62F4AE050E00D94850003E029
:100E6C0001D01BCF0093EE2102E00093F2210895F4
:100E7C000F947F00A4EEB1E2FD0122893389F801C1
:100E8C0050814180FD01408A518BF8011281038110
:100E9C000D901D902D903C90139700151105220577
:100EAC00330540F008E00093EE210AE00093F221B4
:100EBC0000E00BC00419150B220B330B66D0FD019F
:100ECC00048B158B268B378B01E0E5E00D946A00C3
:100EDC00A8DF2488358964D0222D6CD0A2DF248928
:100EEC00358901D060CF02E412E20D9477010F94A2
:100EFC008000A4EEB1E24ED0012B022B032B49F45F
:100F0C0000E018EF048B158B068B078B80E098E0C4
:100F1C001BC040D0402F412B422B432B99F100306A
:100F2C0048E0140780E02040304010F4C80101C0B4
:100F3C0098E0A80166897789481B590B604070407E
:100F4C00448B558B668B778B392F2AD0282F32D038
:100F5C0042E452E204C0FD0158D017D02ED08C01CF
:100F6C000197012BB1F2FA010191AF010F3F99F3F7
:100F7C0005E00093EE2108EE17E021E0FD01008F63
:100F8C00118F228FE4E00D946B000F5F1F4F2F4FDA
:100F9C003F4F0895FD0104891589268937890895E5
:100FAC004089518962897389048115812681F801F0
:100FBC002CBF089502E412E21994008B118B228B42
:100FCC00338B08952EDF0089418940934222009390
:100FDC00432222E030E085CF24DF17D06489758965
:100FEC00402F4F73042E112442E452E2400D511D48
:100FFC00078010842184F0012CBE199500E0EAE5ED
:10100C00FAE20787008B018BCECE008911892289E9
:10101C0033890895B901B2D0208127FDFDCFECECC6
:10102C00208128602083105F98018B010F94ED00C4
:10103C00ECECF1E00081077F008308950F948000B1
:10104C00C801A22FB091CA013AD098D0008107FDF7
:10105C00FDCF82D09093C1018093C001A093C401B5
:10106C0005E337D0B093CA01E4E00D946B000F9404
:10107C007E00C801D9012A010DC08D0134D045E094
:10108C008C010F94A1004AD08096909600EE400EF1
:10109C000FEF501E042D052979F0082F0F7129F43C
:1010AC0000E2401600E0500640F72D918C01C6DF9F
:1010BC0001960FEF400EEDCFE6E00D9469005ED087
:1010CC00008107FDFDCF008101FF02C006E301D0C6
:1010DC0008950093CA0121E00BEC11E00D949A00E5
:1010EC003093CA0108953091CA012091CF0127FD98
:1010FC00FCCF0BD02093C001F80141918F0140939C
:10110C00C40123952032B0F3EBCF23E32093CA0123
:10111C0020E02093C2012093C10108952ED01081AC
:10112C0017FDFDCFDAD005E321C09A938A93802F67
:10113C009091CA01C4DF46D007FDFDCF0DD00093BE
:10114C00C10111D08093C40103950032D0F3909368
:10115C00CA0189919991089503E30093CA0100E0B3
:10116C000093C20108950093C00108950093CA0131
:10117C00B2DF8093CA01899108958A93EFECF1E074
:10118C000895FBDF008107FDFDCFB0D000E3EECF6B
:10119C0001D0F7CF0FEFC9CF0F948000DA01CB014C
:1011AC00A801622F0FD007FDFDCF082F092B49F0A6
:1011BC00FA016BBF06910D934F5F5F4F6F4F019715
:1011CC00F4CF52CF0091CF0108950F947400229761
:1011DC004A015B01280139011170802F952DD9012D
:1011EC00801B910BA040B040CA8807C0EBDF07FD05
:1011FC00FDCF45E2002D0F942E000A2D0B2909F48A
:10120C0055C0DD24DFDF07FDFDCFEE24FF24F39472
:10121C00CC2071F0FC01ABBF0791169108831983A8
:10122C002881312F2F3F3F4F31F0DD24D39403C061
:10123C000FEF088309830A2D0B29C9F048165906AC
:10124C006A067B0631F43BD0088334D00A2D0B2977
:10125C0071F08C019D010F5F1F4F2F4F3F4F4016B8
:10126C0051066206730619F42AD0098323D04881EB
:10127C0059818C019D010F941C008E5F9F4FAF4FC5
:10128C00BF4F0FEFE00EF01E0E2D0F2909F68C014B
:10129C009D010050124020403040DD20002E09F00E
:1012AC00A5CF90DF07FDFDCF44E2A4CF2296E1E16C
:1012BC000D945F0001E0800E00E0901E08950FEF8A
:1012CC00A00EB01E05D0601E701EF40100810895A2
:1012DC0001E0400E00E0501E089510E2019F00E076
:1012EC000093C2011092C1010092C0018091CA0109
:1012FC0008950FBF0895083049F01FB7F894E0E542
:10130C00F0E02081202B2083012F72D008958A9346
:10131C008FB7F8940A9519F00A9559F023C0183034
:10132C0019F424D0016002C023D00E7F0083E8E6BC
:10133C0016C01ED0097F0083183019F417D0026034
:10134C000CC0143011F4008108C01F3F39F400E8C0
:10135C0007870BEB008B008104600083E0E60081C3
:10136C0001600083082F44D08991089504E0C3DF05
:10137C00E6E5F0E0008108952497E0E7F0E007E06F
:10138C001FEF11930A95E9F724E001E44AD02CE110
:10139C0024D009832DE121D0088319810F3F1F4FE1
:1013AC0021F400E413E208831983088119810A836C
:1013BC001B830A81009362000B810093630034D07D
:1013CC0021E000E42ED00FB7F894E0E5F0E01081B6
:1013DC001E7F10830DD02496089530E002E00D940A
:1013EC0090004FB7F894109504D001230083042F7C
:1013FC0080CFF0E0E02FE059FF4FBCCF8A9306304E
:10140C0011F488E101C080E00091510001FB0EF065
:10141C000BD08360282F04E404D010E400E0E1DF5B
:10142C00A3CF10E00D949A0002E065DF009151000B
:10143C0001FBE6F71FEF02E06ACF0A011B01B901BD
:10144C00A801800191010D94D208E1E0EA930D947A
:10145C00EB080A01A901980180010D9410089A016A
:10146C00AB010D943D080A01A90122E031E2200DE7
:10147C00311D0D94ED000A01A90128ED31E2F7CFE1
:10148C00E8EDF1E20091900000830091910001835E
:10149C000091920002830091930003830895E0ED84
:1014AC00F1E0008101FB00E000F90F2708950091A5
:1014BC00CF0107FDFCCF40E200E010E020E030E07F
:1014CC000F942E000F94CE0801E00895F8940AEAC8
:1014DC0015E5E0E0F0E200831183209179002160B2
:1014EC0009E710E00F949A00FFCF089527E402EA71
:1014FC0010E00F949A000F94C20978940F940F0483
:10150C000F944E01FFCFDA08D821000000D400025E
:10151C002120150204000000000200230A012B0AFE
:10152C0001000800002F0A01350A010300000039F0
:10153C000A0100000004000000410A010000000044
:10154C0000000000000000000005210F212D212DBE
:10155C0021192123212D212D212D212D212D212D2D
:10156C00212D212D212D212D212D210000030000C5
:10157C00000000000000000000000000000000005F
:10158C0000000000000000000000000000004154BA
:10159C004D454C00444655204154584D454741312A
:1015AC0032384333000004030904FC05010506012D
:1015BC0006060153060100000000120100020000A3
:1015CC000040EB03D72F04000102000109021200B6
:1015DC00010100C0320904000000FF000000982146
:0815EC00BA21CC21A821CE2177
:0400000320000000D9
:00000001FF
