:020000021000EC
:1000000000C00091780005FD87C0F092400608E12D
:10001000009356060FEF0A950023E9F70091480672
:1000200006FFECC0E0E0F0E0079116910F3F19F4F5
:100030001F3F09F4E3C070C03091CF0137FDFCCF02
:100040003BB72BBFF8012091CA0113E21093CA01FC
:100050000A01E8952093CA013BBF08953BB72BBF27
:10006000F8012091CA014093CA013DE93093340060
:0A007000E8952093CA013BBF0895F4
:10007C000C9446850C947E8520E008D0E9F7089511
:10008C003BBF27913BB702D0D9F708952D93015070
:10009C001040202F212B08950EE0402E0FE0502E03
:1000AC0001E0602EF201362D6BBE07911691F20124
:1000BC00EE5FFF4F3F4F3BBFA791B691F201362D3C
:1000CC00EC5FFF4F3F4F3BBF479157916691242FF9
:1000DC00252B262B21F0FA01362FD2DF01C0CCDFE5
:1000EC0007E0400E00E0501E601EA201662D4C3150
:1000FC005F406140B8F2089501E70DBF00E20EBF0A
:10010C00C4E5DAE20E9452800E944581F0925606C4
:10011C0000910020109101200A3A154511F00C9421
:10012C000000F0920020F092012000E20093780091
:10013C00F6CFAA84998488847F806E805D804C8001
:10014C00BB81AA8199818881F0E0EC0FFD1FEF0142
:10015C000895BD01D801F90104C021912D9341509E
:10016C005040242F252BC9F7DB010895AA929A92AF
:10017C008A927A926A925A924A92BA93AA939A93D0
:10018C008A930895AF93BF93D80101900D9241507B
:10019C005040D9F7BF91AF9108954091CA01E22F19
:1001AC00F32F0093CA0104914093CA01089540E0D3
:1001BC004BBFF80158ED54BF208308954A951AF0AF
:0801CC00000F111FFBCF089585
:1001FC0083CF0FBF08954FB7F8941095F0E0E02F20
:10020C00E059FF4F008101230083042FF2CFBA0184
:10021C00A801890105D14DC361E06A93BA01A90116
:10022C00FFD05CC3B90198018B01D7C20E94C18079
:10023C00C801D9012A0104C02D918C01E0D201968C
:10024C0082012FEF420E521E012BB1F7E6E00C9407
:10025C00A48062E770E2260F371F0C94AF8068E130
:10026C0071E2F9CFF8940AEA15E5E0E0F0E20083D8
:10027C00118320917900216009E735D0FFCF27E465
:10028C0002EA31D005D078949CD3D6D3FFCFB1CF2E
:10029C0024E001E428D02DE129D0009362002CE168
:1002AC0025D0009363000FB7F894E0E5F0E01081DF
:1002BC0012601083ECDF0091510001FBE6F721E0A6
:1002CC0000E411D0E6E5F0E00081097F008300E84E
:1002DC0007870BEB008B008104600083E0E6008154
:1002EC0001600083089510E00C94DD8030E002E0A2
:1002FC000C94D38000E000931C2153D0009190000B
:10030C000093182100919100009319210091920003
:10031C0000931A210091930000931B210091D001AE
:10032C0001FB16F001E001C000E0E2C034D2A6E30C
:10033C00B1E2009136210076003289F51091372117
:10034C000C91569707FF0FC0125041F01A9529F5E2
:10035C0026E030E09E968D01E5D11DC0D4964BD59C
:10036C00E1F009951DC01A9521F01350B1F419D084
:10037C0012C000911C21002321F008E311E8929691
:10038C0008C020E430E00FE511E2CCD103EE11E817
:10039C0094960D931C9301E003C00FE063D000E032
:1003AC0066C100C0BCD100E006A702E002AB00E0D1
:1003BC0004A305A302A303A30895F3DF10E0AFD1B8
:1003CC0014AB15ABEFE5F1E230812181203001E077
:1003DC00300709F428C0203003E0300709F448C086
:1003EC002130300709F464C0203004E0300761F498
:1003FC000091CF0107FDFCCF40E200E011D00E943C
:10040C002E8048D200E074C02330300721F401E084
:10041C0000931C2108952330364009F458C07DC147
:10042C0020E030E00895B7D133D011F080D019C05E
:10043C00ACE4B1E22D913C919D972030304019F401
:10044C0003E010D002C02AD011F400E00AC020E072
:10045C0038E0E7D067D107E213E894960D931C932C
:10046C0001E005C100934E210AE00093522108954A
:10047C0015D019F025D011F416D04FC109D019F0B0
:10048C000DE912E802C008EC12E804AB15AB32C05F
:10049C0000911D2110911E210123089501E611E206
:1004AC004DD00023089503E006A70AE002AB08959F
:1004BC00F5DF19F005D011F4F6DF2FC170D01AC09A
:1004CC00E0E2F1E222A533A5203030400895EFE5BB
:1004DC00F1E20281002359F40381013118F008E0A4
:1004EC00C1DF1BC109D000E01AD106AB07AB02C0BB
:1004FC0000931D2101E00895033041F0023031F0EA
:10050C00043021F0053011F011E001C010E010931F
:10051C001E2112E0019FF001E356FF4D6081F18135
:10052C0006E411E2E62F48E050E00C94C88003E0AA
:10053C0000934E2102E000935221EFC0BD01D8017F
:10054C005C91F8010181402FEAD006AB57AB1296B3
:10055C001D9130E00C9120E006A017A020A431A43E
:10056C00001511052205330520F008E09DDF00E0A1
:10057C0007C0041B150B0F5F1F4F00AF11AF01E03D
:10058C00DB01089577D040AD51AD49D09A9623D474
:10059C009B970995FD0120AD31AD4FD068C045D179
:1005AC00A0E2B1E2FD0100AD11AD012B39F400E088
:1005BC0018EF00AF11AF80E098E010C0FD0100AD66
:1005CC0011AD202F212B51F1183010F4C80102C0AD
:1005DC0080E098E0081B190B00AF11AFAC011FD0E5
:1005EC0062A5F3A5E62F09951CD007C0FD0126A92D
:1005FC0037A92F5F3F4F26AB37AB9C010197232BBD
:10060C00E9F2F80121918F012F3F81F305E000936E
:10061C004E210AE113E8FD0104AB15AB83C326A9F7
:10062C0037A900EA11E208957AD026A907A9009308
:10063C00A0212093A12122E030E000EA11E21AD29D
:10064C0059CF18D006A917A940AD51AD202F2F7343
:10065C00622F70E020EA31E2260F371F9C96BBD345
:10066C009D97099500E0FD0104A305A301E0A99164
:10067C00B9910895BA93AA93A0E2B1E2FD0108954D
:10068C00009138210F770093C3040895009138210D
:10069C00002319F0025039F005C024E030E004E1E9
:1006AC0011E218C03AC020E004EE10E250E032E053
:1006BC00F0E0E22FEC51FF4D40A1239FF801E00D3B
:1006CC00F11D4283538323952F3090F320E2209326
:1006DC00E42030E0B4CF23D0018D0A9529F00A959F
:1006EC00A1F00A95B9F019C0E0ECF0E2228930E0F3
:1006FC0072968F0117D013D0C0D220A131A102174E
:10070C00130710F400A311A3F5CEE0ECF0E2228164
:10071C003381EFCFBBDF002371F700E00895E0E2F7
:10072C00F1E20895A7C137D0FADF06890F7189F578
:10073C001789068907FF14C0112329F0165041F0C0
:10074C00125041F026C022E030E000EA19E206C067
:10075C00C2DF20C021E030E002EA19E2E3DF17C07B
:10076C00155019F0145031F014C006E413E802A32C
:10077C0013A30DC001E010E0A0EAB9E20D931C93A5
:10078C00008D0093A229002311F0B4DD03C001E019
:10079C0001C000E06CCFBA93AA930895C0DF00E0CB
:1007AC0000A301A302A303A304A305A3068907FFC7
:1007BC0003C063D2012B81F000913621007619F42D
:1007CC00B2DF002341F4009136210F71013021F486
:1007DC00ADDD002309F08ECEA0CFB90132D020813F
:1007EC0027FDFDCFECEC208128602083105F980161
:1007FC008B0133DDECECF1E00081077F72CD15D07D
:10080C00C801A22FB091CA0112D01BD0008107FDE4
:10081C00FDCF39D09093C1018093C001A093C40146
:10082C0005E312D0B093CA017DC20C94C38009D0E9
:10083C00008107FDFDCF008101FF02C006E304D05B
:10084C000895EFECF1E008950093CA0121E00BEC60
:10085C0011E04ACD9A938A93802F9091CA01E7DFD9
:10086C000091CF0107FDFCCF0ED00093C101009386
:10087C00C0018093C40103950032C8F39093CA0160
:10088C0089919991089503E30093CA0100E00093C4
:10089C00C20108958A930FEFDDDFD3DF008107FDDE
:1008AC00FDCF8091CA0100E3CFDF8093CA0189910B
:1008BC0008952091CF0127FDFCCF262F272B69F01F
:1008CC00F80130E03BBF2691FA0120834F5F5F4F68
:1008DC000F5F1F4F61507040F0CF08950E94BC8095
:1008EC002297DA013B012801912F80E08D8407C00B
:1008FC004091CF0147FDFCCF45E20E942E80062D92
:10090C00072909F442C0AA240091CF0107FDFCCFAE
:10091C0000E8902E882071F0FC0130E03BBF07917D
:10092C0016910883198308810F3F1F4F31F0AA24B9
:10093C00A39403C00FEF08830983062D072979F0D0
:10094C004816590629F425D00883062D072939F0B5
:10095C00FC0131964E165F0611F41BD009834881B9
:10096C0059818C015DDD0E941C8002969A9491F64F
:10097C00AC015A95AA208A0153DD09F0B9CF4091F8
:10098C00CF0147FDFCCF44E2B8CF2296ECE00C94AB
:10099C009F800FEF600E701E01E0400E00E0501EB5
:1009AC000D91089526CC2AE107D00093FA042BE18F
:1009BC0003D00093FB04089599DC0F3F09F40FE179
:1009CC0008950E94C48000E00093600010E413DCE2
:1009DC0023E004E488DC7ED20064008301E0009311
:1009EC006000AFB7F89400E010E028E0029FF0013F
:1009FC00E05EFE4D158303950230C0F3D4DF009109
:100A0C00C0040093C00466D20068008300810061BA
:100A1C00008380E291E20496E6EC80839183E0EC23
:100A2C0036D10FEF0583E8EC0081016000830A2FBB
:100A3C00B9DFE3E00C94A7800FB7F89410E410939F
:100A4C00CA0410E21093CA04E1ECF4E010811160C6
:100A5C001083E9EC108112601083E8EC10811064B3
:100A6C001083E9EC108111601083E8EC10811068A0
:100A7C00108398CF54DE068F178F20A331A30895CF
:100A8C0067D00091CB0407FF02C000E82EC008D24B
:100A9C00002361F5EBEC1FD204FF1EC000E117D25E
:100AAC0000E00093A22901E010E00093A02910932C
:100ABC00A12900E00093C30420E430E05CD020E4E2
:100ACC0030E010E000E857D003EA19E20093282147
:100ADC00109329212BD10AC0008106FF02C000E42B
:100AEC0004C0008105FF02C000E2F1D11ED01895B0
:100AFC002FD0A4D101FD02C091D1B1F402E000933A
:100B0C00CC040091C50422D0F801008105FF06C079
:100B1C001DD020E2F801269310D106C000E817D0B2
:100B2C0020E2F8012693B6D0E1CF9BBF8FBF09918D
:100B3C00199129913991499159916991799109901A
:100B4C00199029903990E991F9919ACE00E02DC035
:100B5C009A938A93FA93EA933A922A921A920A9265
:100B6C007A936A935A934A933A932A931A930A93D1
:100B7C008FB79BB708958A932051304041F0205194
:100B8C00304039F02052304031F080E005C081E037
:100B9C0003C082E001C083E0DADF20E0F8012183AA
:100BAC0026E020838064818382CE64E271E2202F70
:100BBC002F70220F402F440F00E010E0001F020F97
:100BCC0043E00E94E480060F171F08959D01E8EC96
:100BDC0082D10F7D008300810F7D00834DD102E017
:100BEC000593AEE2B1E200E010E00D930C93539646
:100BFC0000E2069300E4069349D1069300E40693C1
:100C0C001D931D931D931C9315971D931C9312AF4D
:100C1C00D9010895C0DD8CD0002331F0033011F0E0
:100C2C00043009F436D182D0FD01068117810830D9
:100C3C0050E0104009F548E023EA39E206E311E2FE
:100C4C000CDBE8ECF4E023D022D0A8DD002311F477
:100C5C00F8D012C0FD01068907FF05C011D002E0D3
:100C6C0006AF18D009C009D0012B11F4F6D004C07E
:100C7C0007D001E006AF06D1FACC048D158D08958E
:100C8C0000E002AF03AFDC960D930C930895008146
:100C9C00006227CB4CD0033011F447D043C0A7D00F
:100CAC0080A191A1801B910B282F292BE9F496D0C0
:100CBC00E4DF0217130721F00091E329002311F060
:100CCC00DED030C004A115A120E00030120799F04D
:100CDC00F8010995002379F000E0FD0104AFFC96C2
:100CEC000183FD0180A191A1803400E0900718F0F0
:100CFC0080E490E001C001E00093E329FD018687C8
:100D0C009787068D178D24AD35AD020F131F008B01
:100D1C00118BDC960D91132F080F191F1C930E933A
:100D2C00ABD0B1D0E4E00C94A680B3D04FCF7DDD36
:100D3C00A0E2B1E200915E210895F9DF043011F4D4
:100D4C00F4DF48C0FD018681978164AD75AD20A1AB
:100D5C0031A18B01080F191F2017310718F4C90195
:100D6C00861B970BAC0123EA39E2068D178D060F13
:100D7C00171F73DA3CD0080F191F04AF15AF80345E
:100D8C00904031F42FD0448D558D2417350750F0F9
:100D9C0000A311A394962FD019F00995002389F084
:100DAC005CD018C020A131A12017310791F4949682
:100DBC0012D0959700E0E030F00719F00995002368
:100DCC0011F43FD007C013D009D000E0DC960D938E
:100DDC000C9358D0A7CFED91FC91089503D022AF7E
:100DEC0033AF089522AD33AD200F311F0895FD01AF
:100DFC0004AD15AD0895EFDF00E0E030F007089585
:100E0C001DD001FD0AC00AD041F400915E210130D1
:100E1C0009F423C0043009F417D008955FD041CBF6
:100E2C000DD001FD0AC0FADF41F400915E210230C1
:100E3C0009F425C0033009F407D008950091CC04BF
:100E4C00089505E000935E21EDE2F1E204E00593E4
:100E5C00E5E2F1E204E0059308951B2F2A2F5FDCF5
:100E6C0003E0DF01DE960C9300E00687078704D0D1
:100E7C000AD0A22FB12F0895ECE2F1E2089504E01C
:100E8C0000935E2103D002E006930895E4E2F1E2C0
:100E9C00089581DCA2E4B1E2AEDF09F00995E7CB5D
:100EAC00EBEC19D002FF08C0F093CA0400912C217E
:100EBC0006FF0BC0A5DF09C0008101FF07C002E0DF
:100ECC0006D00091242106FDABDF14CB26CC009379
:100EDC00CA040895E0ECF4E000810895AFDF00FF50
:100EEC001CCC01E00093CC04D1DF00E80693C4DFF6
:100EFC0000E8069301E0EBDFC9DF00E106938ADE30
:100F0C00F9CACC081821000000A60072201C0F01A1
:100F1C00040000000001000D81128100080000187F
:100F2C00811C81030000002F8100000400000035AB
:100F3C00810000000000000000000075207D20955D
:100F4C0020952085208D2095209520952095209505
:100F5C00209520952095209520952095200009021C
:100F6C001200010100C0320904000000FF00000063
:100F7C001201000200000040EB03E12F040000020C
:100F8C000001000300000000000000000000000051
:100F9C000000000000000000000000000000000045
:100FAC000000444655204154584D45474136344283
:060FBC00310004030904EA
:0400000310000000E9
:00000001FF
